:020000000C28CA
:10000800FE00030EF2000408F3000A08F400782842
:100018000D28F601F701CC01CD01CE01CF01D001A9
:10002800D101D201D30183012829BF00C201C30134
:100038003F08902121084302031D2428200842027A
:10004800380803186028A3003708A2003608A10062
:100058003508A0003C08A7003B08A6003A08A50000
:100068003908A400A801A901AA01AB0142083F0769
:10007800BD0084000008D7202308BC002208BB006C
:100088002108BA002008B900C20A0319C30A1C28AB
:10009800FF30B906BA063A08C1003908C000BE00E8
:1000A800BD0141083D07B9000030031801303E0783
:1000B800BA00BB01BC017328003A03196E287328E3
:1000C8003608A63A0319692873283508BC3A031973
:1000D8004C2873283708003A0319642873283A080B
:1000E800B6003908B50008008B180B1E83283C3071
:1000F8008312031381000B118B168B10CE288312E9
:1001080003138C1EA128AE21F500043076020318D3
:10011800952876084E3E8400750883138000F60AF9
:100128009728CD01CD0A75080A3A0319F601750812
:100138000D3A031DCE28F601CE280B1DCE287708D0
:100148000319C9288316010EF000F00C700C013950
:10015800F10000308312061801307106031DC6280D
:1001680000308316011F0130F000F00EF00DF00D85
:1001780001087006BF39700681008312CC01CC0AD1
:100188008B100B16F7018B12CB28F701F70A3C30BE
:1001980081000B1174088A0073088400720E8300B2
:1001A800FE0E7E0E0900AC00B100B201B301B4012D
:1001B8002408B1062508B2062608B3062708B4069F
:1001C800AD01AE01AF01B001311CF828340DB40CFB
:1001D800B30CB20CB10C2008B1062108B2062208F3
:1001E800B3062308B406FD28340DB40CB30CB20CC6
:1001F800B10CAD0A0319AE0A0319AF0A0319B00A04
:100208003008803AFF0080307F02031D1529003036
:100218002F02031D152900302E02031D1529083051
:100228002D02031CE8282808B1062908B2062A0866
:10023800B3062B08B4063408A3003308A20032081A
:10024800A1003108A0000800AB2182308312CB0046
:10025800DD30CA00CA0B2E29CB0B2E293329592190
:10026800A1214C0803194329CC010310861D03144E
:1002780083120313031C42298615432986114D084E
:10028800031935294E30CD01F6017A214508440479
:10029800031D35290310861D031483120313031C41
:1002A80057298615352986113529831203138601A6
:1002B8008501033083168600113083129F00831650
:1002C8008501073081048111811201128113011700
:1002D8008C160B178B178312061C752983160113AE
:1002E8007729831601178B100B160800C700A0305A
:1002F800B801B701B6000130B500B901BA01BB01B8
:10030800BC01470819203608C9003508C800490843
:10031800C5004808C4000800A300A40024088400FD
:100328008313800803199A29A40A9229230824020E
:10033800A000A101A01BA10308008130990083122D
:1003480018138316181283121816981708008316A4
:080358008E1108001A080800CC
:02400E0070FF41
:00000001FF
